:100000000C94EB050C9432060C9432060C943206D8
:100010000C9432060C9432060C9432060C94320680
:100020000C9432060C9432060C94C6220C9498233D
:100030000C94B7190C9432060C9432060C943206C8
:100040000C9432060C9432060C9432060C94320650
:100050000C9432060C94041A0C9432060C9432065A
:100060000C9432060C9432060C9432060C94320630
:100070000C9432060C9432060C9432060C94320620
:100080000C9432060C9432060C9432060C94320610
:100090000C9432060C9432060C9432060C94320600
:1000A0000C9432060C9432060C943206200F200F6A
:1000B000520F520F9F0FBD0FDE10DE10C80F5D10E4
:1000C0006E106E10CE10DE10DE10D7107E117E1175
:1000D0009011901187119011901190117E117E1145
:1000E0008C11901190118C1105242C2424252C2482
:1000F000242578249B242425F224012529001E0090
:100100001F002000210022002300240025002600DB
:1001100027002D002E002A00A90046002B00140005
:100120001A000800150017001C0018000C0012002F
:1001300013002F003000AA00260239000400160028
:10014000070009000A000B000D000E000F0033002D
:10015000340028004C002702E1001D001B000600AF
:100160001900050011001000360037003800E500C6
:1001700052004600E000E000E300E20000002C0036
:1001800000002C004A004D003100E40050005100F6
:100190004F00010001000100010001000100010009
:1001A0000100010001000100010001000100010047
:1001B0000100010001000100010001000100010037
:1001C0000100010001000100010001000100010027
:1001D0000100010001000100010001000100010017
:1001E0000100010001000100010001000100010007
:1001F00001000100010001000100010001000100F7
:1002000001000100010001000100010001000100E6
:1002100001000100010000000100010001000100D7
:1002200001000100010001000100010001000100C6
:1002300001000100010001000100010001000100B6
:1002400001000100010001000100010001000100A6
:100250000100010001000100010001000100010096
:100260000100010001000100010001000100010086
:100270000100010001000100010001000100010076
:100280000100010001000100010001000100010066
:100290000100010001000100010001000100010056
:1002A0000100010001000100010001000000010047
:1002B0000100010001000100010001000100010036
:1002C0000100010001000100010001000100010026
:1002D0000100010001000100010001000100010016
:1002E0000100010001000100010001000100010006
:1002F00001000100010001000100010001000100F6
:1003000001000100010001000100010001000100E5
:1003100001000100010001000100010001000100D5
:1003200001000100010001000100010001000100C5
:1003300001000100010001000100010001000100B5
:1003400001000000010001000100010001000100A6
:100350000100010001000100010001000100010095
:100360000100010001000100010001000100010085
:100370000100010001000100010001000100010075
:100380000100010001000100010001000100010065
:100390000100010001000100010001000100010055
:1003A0000100010001000100010001000100010045
:1003B0000100010001000100010001000100010035
:1003C0000100010001000100010001000100010025
:1003D0000100010001000100000001000100010016
:1003E0000100010001000100010001000100010005
:1003F00001000100010001000100010001000100F5
:1004000001000100010001000100010001000100E4
:1004100001000100010001000100010001000100D4
:1004200001000100010001000100010001000100C4
:1004300001000100010001000100010001000100B4
:1004400001000100010001000100010001000100A4
:100450000100010001000100010001000100010094
:100460000100010001000100010001000100000085
:100470000100010001000100010001000100010074
:100480000100010001000100010001000100010064
:100490000100010001000100010001000100010054
:1004A0000100010001000100010001000100010044
:1004B0000100010001000100010001000100010034
:1004C0000100010001000100010001000100010024
:1004D0000100010001000100010001000100010014
:1004E0000100010001000100010001000100010004
:1004F00001000100010001000100010001000100F4
:1005000001000100000001000100010001000100E4
:1005100001000100010001000100010001000100D3
:1005200001000100010001000100010001000100C3
:1005300001000100010001000100010001000100B3
:1005400001000100010001000100010001000100A3
:100550000100010001000100010001000100010093
:100560000100010001000100010001000100010083
:100570000100010001000100010001000100010073
:100580000100010001000100010001000100010063
:100590000100010001000100010000000100010054
:1005A0000100010001000100010001000100010043
:1005B0000100010001000100010001000100010033
:1005C0000100010001000100010001000100010023
:1005D0000100010001000100010001000100010013
:1005E0000100010001000100010001000100010003
:1005F00001000100010001000100010001000100F3
:1006000001000100010001000100010001000100E2
:1006100001000100010001000100010001000100D2
:1006200001000100010001000100010001000100C2
:1006300000000100010001000100010001000100B3
:1006400001000100010001000100010001000100A2
:100650000100010001000100010001000100010092
:100660000100010001000100010001000100010082
:100670000100010001000100010001000100010072
:100680000100010001000100010001000100010062
:100690000100010001000100010001000100010052
:1006A0000100010001000100010001000100010042
:1006B0000100010001000100010001000100010032
:1006C0000100010001000000010001000100010023
:1006D0000100010001000100010001000100010012
:1006E0000100010001000100010001000100010002
:1006F00001000100010001000100010001000100F2
:1007000001000100010001000100010001000100E1
:1007100001000100010001000100010001000100D1
:1007200001000100010001000100010001000100C1
:1007300001000100010001000100010001000100B1
:1007400001000100010001000100010001000100A1
:100750000100010001000100010001000000010092
:100760000100010001000100010001000100010081
:100770000100010001000100010001000100010071
:100780000100010001000100010001000100010061
:100790000100010001000100010001000100010051
:1007A0000100010001000100010001000100010041
:1007B0000100010001000100010001000100010031
:1007C0000100010001000100010001000100010021
:1007D0000100010001000100010001000100010011
:1007E0000100010001000100010001000100010001
:1007F00001000000010001000100010001000100F2
:1008000001000100010001000100010001000100E0
:1008100001000100010001000100010001000100D0
:1008200001000100010001000100010001000100C0
:1008300001000100010001000100010001000100B0
:1008400001000100010001000100010001000100A0
:100850000100010001000100010001000100010090
:100860000100010001000100010001000100010080
:100870000100010001000100010001000100010070
:100880000100010001000100000001000100010061
:100890000100010001000100010001000100010050
:1008A0000100010001000100010001000100010040
:1008B0000100010001000100010001000100010030
:1008C0000100010001000100010001000100010020
:1008D0000100010001000100010001000100010010
:1008E0000100010001000100010001000100010000
:1008F00001000100010001000100010001000100F0
:1009000001000100010001000100010001000100DF
:1009100001000100010001000100010001000000D0
:1009200001000100010001000100010001000100BF
:1009300001000100010001000100010001000100AF
:10094000010001000100010001000100010001009F
:10095000010001000100010001000100010001008F
:10096000010001000100010001000100010001007F
:10097000010001000100010001000100010001006F
:10098000010001000100010001000100010001005F
:10099000010001000100010001000100010001004F
:1009A000010001000100010001000100010001003F
:1009B0000100010000000100010001000100010030
:1009C000010001000100010001000100010001001F
:1009D000010001000100010001000100010001000F
:1009E00001000100010001000100010001000100FF
:1009F00001000100010001000100010001000100EF
:100A000001000100010001000100010001000100DE
:100A100001000100010001000100010001000100CE
:100A200001000100010001000100010001000100BE
:100A300001000100010001000100010001000100AE
:100A4000010001000100010001000000010001009F
:100A500001000100010001000100010012036B0010
:100A60006500790062006F006100720064000000A0
:100A7000160371006D006B006200750069006C0068
:100A800064006500720000000403090409023B00D1
:100A9000020100A0FA09040000010301010009217C
:100AA000110100012240000705810308000A090422
:100AB0000100010300000009211101000122BC0016
:100AC0000705820320000A1201100100000008ED52
:100AD000FE606001000102000105010902A101851B
:100AE000020901A100050919012905150025019533
:100AF0000575018102950175038101050109300920
:100B0000311581257F9502750881060938158125E3
:100B10007F950175088106050C0A38021581257F2D
:100B2000950175088106C0C005010980A1018503F2
:100B300019012AB700150126B7009501751081002B
:100B4000C0050C0901A101850419012AA0021501A3
:100B500026A002950175108100C005010906A101BA
:100B60008505050719E029E7150025019508750198
:100B700081020507190029EF1500250195F075017F
:100B80008102050819012905950575019102950154
:100B900075039101C005010906A101050719E029A6
:100BA000E7150025019508750181029501750881F9
:100BB000010507190029FF150026FF009506750895
:100BC0008100050819012905950575019102950116
:100BD00075039101C00011241FBECFEFDAE0DEBF24
:100BE000CDBF04B603FE27C0809194029091950278
:100BF000A0919602B09197028730904BA740B04BDE
:100C0000D1F41092940210929502109296021092D2
:100C1000970214BE84B7877F84BF0FB6F894A89557
:100C200080916000886180936000109260000FBE28
:100C3000E0E0F8E3099511E0A0E0B1E0E4E9FBE4CD
:100C400002C005900D92AC38B107D9F722E0ACE8AC
:100C5000B1E001C01D92A439B207E1F70E9406205D
:100C60000C94C8250C9400000895089581E008951F
:100C700081FF02C0849A01C084988C98089581E015
:100C800008950C94360608950C9443061F93CF9351
:100C9000DF9300D000D01F92CDB7DEB749835A83CF
:100CA0006B833091A40189819A81311114C066232C
:100CB00059F0222349F00E94B716182F682F898116
:100CC0009A810E94601603C00E948B16182F6981BA
:100CD0007A81812F04C00E94B71669817A810F90B2
:100CE0000F900F900F900F90DF91CF911F910C9468
:100CF000F706FC01262F4081518162817381848136
:100D00000C944606CF93DF93EC0160E00E947906D5
:100D1000BE01DF91CF910C9444060E94E917811126
:100D200002C00E949A180C9411090C940F0908959E
:100D30000E946C110E9497062FEF84E39CE02150E3
:100D400080409040E1F700C000000C942A1A0F93F5
:100D50001F93CF93DF93EC0161E00E9479068C0131
:100D6000BE010E944106882349F1BE01C8010E94CC
:100D7000960A882319F1BE01C8010E94E80A882357
:100D8000E9F0BE01C8010E94130C8823B9F08A81E2
:100D9000882369F001158CE5180731F00F3D1C45DB
:100DA00031F40E949A180AC00E94980607C0CE012A
:100DB000DF91CF911F910F910C943F0680E0DF915E
:100DC000CF911F910F9108950C94380681E00895FA
:100DD0000C94E606CF93C82F0E94E4068C2F0E9445
:100DE000E806CF91089580E090E0089508952BE4FF
:100DF000829FC0011124FC012FE0729FE00DF11DC4
:100E00001124E60FF11DEE0FFF1FE450FF4F8591F7
:100E100094910895880F991FFC01E45AF54F85912C
:100E200094910895CF93DF930E94F7060E942A08B9
:100E3000EC018115904508F041C0C11580E4D80748
:100E400008F0D1C0C83ED10510F5C03ED10508F06C
:100E5000FDC0C83AD10578F4C53AD10508F0A2C062
:100E6000C130D10509F4F2C008F4EEC0C430D10598
:100E700008F0ECC0E9C0CF3BD10508F49BC0C03CF2
:100E8000D10508F4E1C0CE01805C91099EC0C11576
:100E900090E2D90758F4C11521E0D20708F0D6C076
:100EA000C03FD10508F4D0C0D065D0C0C11580E3E3
:100EB000D80708F08EC0CE019F7087C0C11595E598
:100EC000D90708F043C0C11524E5D20708F0A2C035
:100ED000C11582E5D80708F5C11591E5D90708F0D5
:100EE00085C0CE0174E0969587957A95E1F7837079
:100EF0009C2F937021E030E002C0220F331F9A959F
:100F0000E2F73C68382BCF70C695C69580E2C89F43
:100F1000E0011124C22BD32B99C09E0123703327EB
:100F20008C2F86958695C115D34508F064C0C1E025
:100F3000D0E002C0CC0FDD1F2A95E2F720E2829FAD
:100F4000C0011124C82BD92BDC6880C0C11529E54C
:100F5000D207A0F4C11588E5D80708F060C0C11514
:100F600096E5D90708F070C08C2F0E94BE088F71DB
:100F7000C82FD0E0DC2FCC27D06268C0C1152AE58D
:100F8000D20708F451C0CE0190568115904208F066
:100F90005BC08D2F8F710E94BE08DD27D0628F71DC
:100FA000D82B54C0C55AD0E0CD5BDE4FC881D0E00D
:100FB000D0644CC0C85AD0E0CC0FDD1FCB5EDE4FF2
:100FC0000990D881C02DD46441C00E940A07EC0169
:100FD0003DC0CE019927D3FF03C0EC01D86C36C0C9
:100FE000EC01D06C33C0DF70D06A30C0DC2FCC276E
:100FF000C16FD06A2BC0C1E0D0E002C0CC0FDD1FB2
:101000002A95E2F720E2829FC0011124C82BD92B38
:10101000DA681CC0DC2FCC27C46FD06A17C0DC2F65
:10102000CC27C06FD06A12C08C2F8F700E94BE0870
:1010300094E0D695C7959A95E1F7CF70D0E0DC2F74
:10104000CC27D069C82B02C0C0E0D0E0CE01DF9130
:10105000CF9108958238910569F1B0F481339105FB
:1010600009F46DC048F48932910509F463C08A32ED
:10107000910509F469C008958533910509F455C0B7
:1010800089339105B9F00895833E910569F138F4EB
:10109000803E9105B1F0823E910509F10895863EAA
:1010A0009105A9F1873E9105B9F1843E910509F0BA
:1010B00064C023C02091850220FD4FC021FD4DC09A
:1010C00008958091850280FD44C08091860280FF52
:1010D00044C08091850284FD42C083EE4DC0809162
:1010E000850282FF38C0F5CF8091850282FD33C032
:1010F0008091860280FD31C0ECCF8091860281FF15
:1011000032C08091850284FD2AC087EE35C080916F
:10111000850283FF26C0F5CF8091850283FD21C023
:101120008091860281FD1FC0ECCF8091850285FDF4
:101130001CC01DC08091850285FD19C016C080911C
:10114000850286FD16C017C08091850286FD13C0FA
:1011500010C089E311C082EE0FC080EE0DC080E0A8
:101160000BC086EE09C084EE07C089E205C085E3A6
:1011700003C08AE201C081E390E008959091850266
:1011800092FF0DC0282F2871283019F4877F8460C2
:1011900006C0282F2471243011F48B7F886093FFC0
:1011A0000DC0282F2871283119F4877E846106C06C
:1011B000282F2471243111F48B7E886120918602BE
:1011C00020FF0DC0382F3871383019F4877F8160C7
:1011D00006C0382F3171313011F48E7F886021FFC5
:1011E0000DC0282F2871283119F4877E816106C02F
:1011F000282F2171213111F48E7E886194FD877E24
:101200000895E82FF0E0EE0FFF1FE958FD4F8081B1
:1012100091810895089580EA8A95F1F708950C94D4
:1012200035060C943406F894E82FE295EF70F0E060
:1012300031A1282F2F7081E090E001C0880F2A95FE
:10124000EAF7982F9095932391A392A1892B82A3DB
:10125000789408950F931F93CF93DF9380EF0E94AC
:10126000130981EF0E94130985EF0E94130987EF8C
:101270000E94130986E90E941309C6E4D1E005E53E
:1012800011E089910E9413090C171D07D1F7EDE6B3
:10129000F2E0A7E7B2E0119211921D921D9282E056
:1012A000E737F807C1F785E00E94E809DF91CF91A1
:1012B0001F910F910C948D067F928F929F92AF9207
:1012C000BF92CF92DF92EF92FF920F931F93CF9333
:1012D000DF93C5E5D1E08DE6A82E82E0B82E97E732
:1012E000E92E92E0F92E712C01E010E06E01888168
:1012F000F894E82FE295EF70F0E021A18F70A8013B
:1013000002C0440F551F8A95E2F7CA01922F982B0D
:1013100091A392A18095892382A378940E940B09BE
:10132000E6E4F1E020E030E0812C912C4191A42F03
:10133000A295AF70B0E090968C9190E04F7002C093
:10134000959587954A95E2F780FD08C0C801022E61
:1013500002C0880F991F0A94E2F702C080E090E073
:10136000882A992A2F5F3F4F2F303105F9F62196B1
:10137000F60180810E941309F50180819181881610
:10138000990621F09182808281E001C080E0782A74
:10139000F2E0AF0EB11CEA14FB0409F0A7CF272D31
:1013A00045E067E772E08DE692E00E94E9090E945D
:1013B0009506872DDF91CF911F910F91FF90EF90B0
:1013C000DF90CF90BF90AF909F908F907F900895C7
:1013D0000895FF920F931F93CF93DF93F82E092F59
:1013E000162FD72FC42F222349F081E080938E013E
:1013F0000E94E91990938D0180938C0180918E0158
:101400008823D9F080918C0190918D010E94F5196B
:10141000069798F0EF2DF02FA12FBD2F80E090E0E0
:101420004C2F50E08417950734F4219131912D937E
:101430003D930196F7CF10928E01DF91CF911F91CE
:101440000F91FF9008950F931F93CF93DF93C42FB5
:10145000D22FFC0182818823C9F0409391010E9420
:10146000E9199093900180938F0180E28C0F88306E
:1014700008F057C0C77081E001C0880FCA95EAF72D
:10148000DF91CF911F910F910C94DC0E809191010F
:10149000481330C080918F01909190010E94F519FE
:1014A000883C910538F510E21D0FCD17B9F080E2A8
:1014B0008C0F883040F4C77081E001C0880FCA9556
:1014C000EAF70E94E30E183028F581E09D2F97700F
:1014D00001C0880F9A95EAF70E94DC0E802F0E94C7
:1014E000C90E1830F0F4D77081E001C0880FDA958A
:1014F000EAF70AC080E28C0F883098F4C77081E068
:1015000001C0880FCA95EAF7DF91CF911F910F9123
:101510000C94E30E802FDF91CF911F910F910C94CB
:10152000C90EDF91CF911F910F9108950F939C01E8
:10153000CB01243F4CE5340731F188F4293DFCE52B
:101540003F07D9F02A3D4CE5340779F1283D3C4569
:10155000A9F506E221EE41EE68ED7CE52BC0263FC1
:10156000FCE53F07E1F0A8F0273F3C4539F507E2ED
:1015700025EE46EE67EF7CE51DC007E225EE45EE61
:1015800069ED7CE517C006E221EE40EE64EF7CE5F4
:1015900011C007E225EE44EE65EF7CE50BC006E2E4
:1015A00021EE42EE66EF7CE505C008E221E045EE63
:1015B0006AED7CE50E94230A80E008C0FC0182817C
:1015C000882319F01092910101C081E00F910895D4
:1015D000CF93DF93EC01FB018281882309F41FC1C3
:1015E000C230FCE5DF0708F41BC1C6319CE5D90712
:1015F00038F09E012B5F3C452930310508F010C1C1
:101600000E9406189093860280938502C031ECE513
:10161000DE0709F4C3C008F041C0C8308CE5D80724
:1016200009F49AC0F0F4C430ECE5DE0709F487C091
:1016300068F4C2308CE5D80709F477C0C330DC45C4
:1016400009F0E3C080918502826076C0C630ECE587
:10165000DE0709F46EC008F07BC0809185028860C7
:101660006BC0CC308CE5D80709F485C068F4CA306B
:10167000ECE5DE0709F474C008F079C00E946C1133
:1016800080918502806858C0CE308CE5D80709F477
:1016900076C008F07FC0809185028BC0CC3FECE51E
:1016A000DE0709F44FC018F5C3318CE5D80709F4FB
:1016B0007DC078F4C131ECE5DE0709F473C0C231B6
:1016C000DC4509F0A2C00E946C11809185028F77E1
:1016D00033C0C5318CE5D80709F472C008F486C060
:1016E000CB3FDC4509F091C0809186023EC0C11518
:1016F000FDE5DF0709F45FC058F4CE3F9CE5D9074C
:1017000009F444C008F43FC08091860282602DC075
:10171000C230FDE5DF0709F475C008F45DC0C330D1
:10172000DD4509F072C080E06EC080918502816065
:1017300003C08091850280618093850266C080919C
:10174000850211C0809186028260809386025DC00E
:10175000809185028062F0CF809185028064ECCF19
:101760008091850288608460E7CF8160EECF8091B0
:1017700085028E7FE1CF809185028D7FDDCF8091C4
:101780008502877FD9CF8091860218C0809186021A
:101790008D7FDBCF809185028F7ECECF80918502B9
:1017A0008F7DCACF809185028F7BC6CF80918502C5
:1017B000877F8B7FC1CF809186028D7F8E7FC5CF43
:1017C0008091850282FB222720F991E0922790FBED
:1017D00082F990FB83F9B0CF80918602982F909583
:1017E00091708E7F892B90FB81F9AFCF0E946C1195
:1017F0008091850287FB222720F991E0922790FBB8
:1018000087F99ACF81E00E949C188091850290917F
:1018100086020E9417180E946C1180E001C081E0CE
:10182000DF91CF910895CF93DF9386319C4541F5A9
:10183000EB010E943817982F8A8120910001309186
:101840000101882379F09A7A81E009F480E080939D
:101850009201911102C069E201C065E3C9010E94D1
:1018600037190AC080919201811102C069E201C05A
:1018700065E3C9010E9442190E94861780E001C0F9
:1018800081E0DF91CF910895909398018093970123
:101890000895E0919701F0919801309721F001901F
:1018A000F081E02D099480E00895E0919701F09196
:1018B0009801309799F020911401222359F020913A
:1018C000850227FF07C0DC012C9111962C931197FC
:1018D00025E02C930280F381E02D09940895E09196
:1018E0009701F0919801309739F022E0DC012C93B8
:1018F0000480F581E02D099408952091950130919F
:1019000096012817390771F09093960180939501FD
:10191000E0919701F0919801309721F00680F781CE
:10192000E02D099408952091930130919401281796
:10193000390771F09093940180939301E09197019E
:10194000F0919801309721F00084F185E02D099401
:10195000089585B7806885BF85B7806885BF08957D
:1019600081E008950C94B00C08950C94B40C0C9480
:10197000B40C0C94B70C0C94B40C0C94BB0C0C94DD
:10198000B40C0E94A90C0E94BF0C0C94BD0C0E94C8
:10199000E0190E942A090E949A1A0C94B90C7F92AD
:1019A0008F929F92AF92BF92CF92DF92EF92FF926F
:1019B0000F931F93CF93DF93CDB7DEB72A970FB660
:1019C000F894DEBF0FBECDBF0E94B50C0E94B40CD0
:1019D0000E945C090E94B20C811111C08FEF8983B3
:1019E0008A831B820E94E9198160782F9D838C83F2
:1019F00049815A816B818D810E94830D4FC04AE9D4
:101A0000A42E41E0B42E00E010E0702E802F0E9442
:101A100001096C01F501819091905F01882699265A
:101A20008114910431F40F5F1F4F0530110569F7E0
:101A3000D5CF80913C0281FD0E940A0980E0EE240E
:101A4000E394F12C94012E213F21232B09F18E8365
:101A50007F82CE20DF2081E0CD2809F480E08887D6
:101A60000E94E9198160782F9A8789874E815F816A
:101A700068858A850E94830D000F111FF801E656C4
:101A8000FE4F80819181E826F926F182E08206C02E
:101A90008F5FEE0CFF1C8F30A9F6C5CF0E946B1D27
:101AA0000E94490C909199018917C9F00E94490C34
:101AB000809399012A960FB6F894DEBF0FBECDBF72
:101AC000DF91CF911F910F91FF90EF90DF90CF901A
:101AD000BF90AF909F908F907F900C94EA062A96CB
:101AE0000FB6F894DEBF0FBECDBFDF91CF911F912F
:101AF0000F91FF90EF90DF90CF90BF90AF909F90AD
:101B00008F907F900895CF93DF93CDB7DEB72B975B
:101B10000FB6F894DEBF0FBECDBF4F8358876987DD
:101B20007A878B87DE01119686E0FD0111928A95F6
:101B3000E9F785E0FE01379601900D928A95E1F76D
:101B400049815A816B817C818D819E810E942514FF
:101B50002B960FB6F894DEBF0FBECDBFDF91CF91AD
:101B60000895FC01808191810E94F9160895CF9318
:101B7000882309F4A4C0C82F8238C1F40E94490CFC
:101B800081FD9DC069E380910001909101010E9457
:101B900037190E9486172FEF81EE94E02150804084
:101BA0009040E1F700C0000069E319C0833801F5F7
:101BB0000E94490C80FD83C063E5809100019091F3
:101BC00001010E9437190E9486172FEF81EE94E0E1
:101BD000215080409040E1F700C0000063E5809113
:101BE0000001909101010E944219CF910C94861737
:101BF0008438C1F40E94490C82FD61C067E4809181
:101C00000001909101010E9437190E9486172FEF61
:101C100081EE94E0215080409040E1F700C0000048
:101C200067E4DDCF8CEF8C0F813AD0F46C2F80917C
:101C30000001909101010E94B718882349F06C2F90
:101C400080910001909101010E9442190E94861723
:101C50006C2F80910001909101010E943719C5CF2E
:101C600080E28C0F883048F4C77081E001C0880F93
:101C7000CA95EAF70E943B17B8CFEBE5EC0FE330CB
:101C800040F4F0E0E857FE4F808190E0CF910C9453
:101C90007D0CE8E5EC0FE73150F4F0E0EE0FFF1FAC
:101CA000E65AFE4F80819181CF910C94930CC03FF6
:101CB00030F08C2F0E94601CCF910C944D1DCF9161
:101CC0000895882309F464C0823879F40E94490C8D
:101CD00081FF5EC069E380910001909101010E9443
:101CE00037190E94861769E310C08338B1F40E9447
:101CF000490C80FF4DC063E5809100019091010186
:101D00000E9437190E94861763E580910001909127
:101D100001010E9442190C948617843879F40E94BC
:101D2000490C82FF35C067E4809100019091010168
:101D30000E9437190E94861767E4E7CF9CEF980F3F
:101D4000913A10F4682FE1CF90E2980F983050F458
:101D5000877091E001C0990F8A95EAF7892F0E9458
:101D60004117D9CF9BE5980F933020F480E090E0A5
:101D70000C947D0C98E5980F973120F480E090E06A
:101D80000C94930C803F20F00E94C81C0C944D1DB5
:101D90000895CF93C82F0E94B70DC93349F42FEF90
:101DA00087EE93E0215080409040E1F700C00000B2
:101DB0008C2FCF910C94610E882321F00E943B1749
:101DC0000C9486170895882321F00E9441170C94E3
:101DD00086170895CF92DF92EF92FF920F931F9391
:101DE000CF93DF937C01062FC72FFC01158112953D
:101DF0001F70D281D1110E9458170E943117882379
:101E000099F0DD2389F08C2F807F803421F080E2EF
:101E1000800F883048F082E00E94D0170E9431176E
:101E200091E0D82ED92601C0D12CCC2EC2948FE0BF
:101E3000C8228C2D90E0FC01EA5AFF4F0C946C25CF
:101E40008C2F807FCF70882311F0C295C07FDD2357
:101E500099F0CC2309F48DC180E2800F883010F016
:101E6000011104C08C2F0E943B1703C08C2F0E94CD
:101E70004B170E9486177DC1802F0E94610ECC23D4
:101E800009F49CC180E2800F883010F0011104C079
:101E90008C2F0E94411703C08C2F0E9451170E9463
:101EA00086178CC18C2F807FCF70803211F0C29545
:101EB000C07F002319F00130C9F022C0DD2371F08A
:101EC000112341F0113031F40E946B178C2B0E94CA
:101ED000731774C10E946B178C2B1DC0112319F04E
:101EE000113009F46BC10E947C1725C0DD2321F05D
:101EF000163008F063C10EC0153008F05FC11BC07A
:101F0000DD2361F0112331F0F701858180FF31C1BC
:101F10008F7085838C2F0E94DC0E50C1112359F0E5
:101F2000093309F037C1FFEF27EE83E0F15020407D
:101F30008040E1F72DC18C2F0E94E30E3FC18C2F12
:101F400086958695837019F0813061F037C1DD2365
:101F500021F0802F9C2F937002C080E090E00E94BF
:101F60007D0C34C1DD2321F0802F9C2F937002C0A3
:101F700080E090E00E94930C29C1802FDD2319F0AE
:101F80000E94601C02C00E94C81C0E944D1D1EC100
:101F90008C2F837009F045C0D11114C1402F429598
:101FA00046954770440F440F602F6F70862F90E066
:101FB000A0E0B0E0042E04C0880F991FAA1FBB1F29
:101FC0000A94D2F704FF10C00FE010E020E030E0E8
:101FD00004C0000F111F221F331F4A95D2F700952E
:101FE00010952095309503C000E010E09801C6954B
:101FF000C695C370BC01CD01602B712B822B932B36
:10200000C23049F058F4C13019F00E947615DAC098
:102010000E946415D7C00E948815D4C00E94621522
:10202000D1C0DD2319F08C2F817001C086958823E3
:1020300009F4C8C0402F429546954770440F440F9D
:10204000602F6F70862F90E0A0E0B0E0042E04C0F7
:10205000880F991FAA1FBB1F0A94D2F704FF10C054
:102060000FE010E020E030E004C0000F111F221F3D
:10207000331F4A95D2F7009510952095309503C0EF
:1020800000E010E09801C695C695C370BC01CD0173
:10209000602B712B822B932BC23049F058F4C13046
:1020A00019F00E943B168EC00E9429168BC00E9418
:1020B0004D1688C00E949C1585C0CF70DD2339F075
:1020C0008C2F0E94C215802F0E94DC0E7BC0802FB7
:1020D0000E94E30E8C2F0E94E31574C0023F01F1B1
:1020E00028F4003F41F0013FA1F03FC0033FF9F069
:1020F000043F39F13AC0DD2341F0153008F05EC0ED
:102100008C2F8F710E94081659C0163008F056C0E7
:10211000F7CFDD2339F08C2F8F710E94C2154EC08E
:10212000DD23C9F38C2F8F710E94E31547C0DD2397
:1021300029F08C2F8F710E94AD1540C00E94A81508
:102140003DC0DD2349F0CF718C2F0E94C21563E0A2
:102150008C2F0E94BB1732C081E00E94D017123032
:1021600068F182E00E94D01729C0DD2331F01123ED
:1021700091F2802F0E94B70D21C0112399F20933EB
:1021800049F49FEFE7EEF3E09150E040F040E1F7D3
:1021900000C00000802F0E94610E10C04C2F4F70B5
:1021A000602FC7010E94F3060E94D3140FC04C2F6A
:1021B0004F70602FC7010E94F60608C088EF8C0D93
:1021C000843020F40E94490C0E94EA06DD20C9F008
:1021D0000E942D1780FD15C0F70112820E9427175B
:1021E0000E94C215C7010E9422110E942717DF9189
:1021F000CF911F910F91FF90EF90DF90CF900C94B3
:10220000E315DF91CF911F910F91FF90EF90DF9039
:10221000CF9008950F931F93CF93DF93EC016881C4
:1022200079818A810E9404178C010E945F160E94A6
:102230005015B801CE010E94EA0EDF91CF911F9197
:102240000F910895CF93DF93EC01988189812B81C1
:102250003C81232B31F08F3F31F481E09F3F19F413
:1022600003C081E001C080E080FD19C0CE010E9462
:10227000A70681110CC00E943117882381F08A8142
:10228000882369F082E0DF91CF910C94D017CE01C2
:102290000E940A11CE01DF91CF910C948206DF914A
:1022A000CF9108950E9458170E9468170E948617C0
:1022B0000E947E1E0E944D1D80E090E00E947D0CD9
:1022C00080E090E00C94930C8091000190910101CA
:1022D0000E944D190C9452110E9448170C946411DD
:1022E000E92FE295EF704E2F50E0FA013297EE3071
:1022F000F105B0F4EA59FF4F0C946C25803F91F042
:1023000018F4883E68F40EC0843F51F40BC0883E38
:1023100048F0813F29F406C093FB882780F908958F
:1023200080E0089581E008950E94F9160E947011DE
:102330000895CF93DF9300D000D01F92CDB7DEB7C2
:102340000F900F900F900F900F90DF91CF91089505
:10235000CF93DF9300D000D000D0CDB7DEB7269664
:102360000FB6F894DEBF0FBECDBFDF91CF910895B9
:102370001F93CF93DF93C091A50116E08091A60132
:10238000C81799F0D0E01C9FF0011D9FF00D11249B
:10239000E955FE4F4081518162817381848195812D
:1023A0000E94A8112196C770E9CFDF91CF911F91AC
:1023B00008954091D7015091D8016091D901709151
:1023C000DA018091DB019091DC010C94A8110F934C
:1023D0001F93CF93DF938091DC0182958F7009F07A
:1023E0005DC08091D901882309F458C08091A5016E
:1023F0001091A6016091D7017091D801C091DA01C6
:10240000D091DB0191E06F3F09F090E0292F06E0C9
:10241000811709F443C0209721F07F3F21F030E07D
:1024200003C031E001C0322F90E030FD34C0089F7E
:10243000F001099FF00D1124DF01A955BE4F11963F
:102440003C911197371327C03C91361324C0129644
:102450003C91129731111FC013964D915C911497C6
:102460004C1B5D0B483C5105B0F48091DC018F7032
:1024700080618093DC01E455FE4F80818F70806124
:10248000808387ED91E00E942211DF91CF911F910F
:102490000F910C94B81101968770BACFDF91CF914C
:1024A0001F910F9108959F92AF92BF92CF92DF92AA
:1024B000EF92FF920F931F93CF93DF93CDB7DEB7C9
:1024C00061970FB6F894DEBF0FBECDBF8C0185E0DB
:1024D000F801DE011D9601900D928A95E1F7F80151
:1024E00040815181E2809091D7016091D801209183
:1024F000DA013091DB012115310531F06F3F31F404
:1025000081E09F3F19F403C081E001C080E0F82F13
:10251000F1709F2E80FD46C1F801A380B48087ED45
:10252000C82E81E0D82EF090D901F501E21BF30B03
:10253000FF2009F4DFC08091DC01E83CF10508F0E0
:102540009BC0282F207F09F052C0561313C0491397
:1025500011C0FE2CE1100EC08F7080618093DC01F1
:102560000E94D911C6010E9422118091DC01F8015C
:10257000858358C1AB2831F05F3F31F481E04F3F94
:1025800019F403C081E001C080E080FD03C081E058
:102590008E2502C080E090E0F82FF170FF2E80FFC2
:1025A0001CC08091A5012091A60136E0821709F494
:1025B00017C190E0389FF001399FF00D1124E955C3
:1025C000FE4F6181561306C06081461303C06281CD
:1025D000E61203C001968770E9CFFE2CEE2009F4C5
:1025E00021C18091DC0181608093DC015AC05613C7
:1025F00006C0491304C0E11002C0F8019FC04D8716
:102600005E878D859E850E949411882379F1EE2046
:1026100069F12091DC01822F82958F7090E0029702
:1026200074F08091D7019091D80198878F83198693
:10263000BB86AA862C87CE0107960E94221186E0CF
:10264000F801A7EDB1E001900D928A95E1F70E94A3
:10265000E7110E94D9110DC0561729F14D875E87E9
:102660008D859E850E94941181112CC0C8010E9405
:102670002211FF24F394D6C0282F207F69F77A2DEA
:10268000B98AA88A6E2D89890E94991187ED91E0F7
:102690000E94221186E0F60111928A95E9F70E94C4
:1026A000D911F12CBFC04913D9CFE110D7CFF80110
:1026B0008583C8010E94221186E0F60111928A9555
:1026C000E9F7B0C0EE2091F22091DC01822F8295D3
:1026D0008F7090E002970CF4B2CF8091D701909167
:1026E000D8019A8389831B82BD82AC822E83CE015E
:1026F0000196A3CFE83CF10508F047C0FE2CEE2080
:1027000009F4B4CF561330C049132EC02091DC0118
:1027100020FD21C0822F82958F70482F50E04115F7
:102720005105C9F0F80125834F30510541F08F5F05
:10273000982F9295907F822F8F70892B8583C80167
:102740000E94221186E0F801A7EDB1E001900D9200
:102750008A95E1F742C086E0F801A7EDB1E001906B
:102760000D928A95E1F75EC04D875E878D859E85C7
:102770000E949411811163CF8091DC01816080936C
:10278000DC01C8010E9422114DC07A2DB98AA88AA5
:102790006E2D89890E94991186E0F60111928A9521
:1027A000E9F71BC0EE2009F461CF4D875E878D8568
:1027B0009E850E949411F82E882309F457CF86E055
:1027C000F801A7EDB1E001900D928A95E1F787ED50
:1027D00091E00E94B10D0E94E7110E94D91122C020
:1027E0004D875E878D859E850E94F916292F22953B
:1027F0002F70223028F49F7039F0811105C00BC072
:10280000243028F49F7049F4805E883020F0C8019D
:102810000E9422119F2CF92C05C0F8019581907F10
:1028200099F7F9CF8F2D61960FB6F894DEBF0FBEE2
:10283000CDBFDF91CF911F910F91FF90EF90DF906F
:10284000CF90BF90AF909F9008951F93CF93DF9349
:10285000CDB7DEB72C970FB6F894DEBF0FBECDBF55
:102860004F83588769877A878B879C87CE01079625
:102870000E9453128823D1F09F8188852A853B8549
:10288000232B31F08F3F31F481E09F3F19F403C0D7
:1028900081E001C080E080FD47C04F815885698597
:1028A0007A858B859C850E94A8113EC086E0FE013A
:1028B0003796DE01119601900D928A95E1F7FF811E
:1028C000E8856A857B856115710531F0EF3F31F44C
:1028D00081E0FF3F19F403C081E001C080E080FD8A
:1028E00023C02091A60130E0C90101968770992785
:1028F0004091A50150E084179507F1F1F983EA832F
:102900007D836C8396E0929FD001939FB00D11243C
:10291000A955BE4FFE01319601900D929A95E1F7AF
:102920008093A6010E94B81116E08091A5019091B4
:10293000A601891771F1189FC001112489559E4F76
:102940000E945312882329F1E091A5011E9FF001F6
:102950001124E955FE4F4081518162817381848148
:1029600095810E94A8118091A50190E00196877041
:1029700099278093A501D9CF0E946C111092A601CE
:102980001092A501E7EDF1E086E0DF011D928A9546
:10299000E9F72C960FB6F894DEBF0FBECDBFDF91DE
:1029A000CF911F910895EF92FF920F931F93CF93B2
:1029B000DF938C01892B09F46CC0F12CEE24E39495
:1029C000E8012196F8018491843740F4843008F0BE
:1029D00051C0813081F0823019F15BC0853709F434
:1029E00044C0A8F19CE7980F903708F052C08F7749
:1029F0000E94610E41C00E5F1F4FFE01849190E264
:102A0000980F983050F48770FE2D01C0FF0F8A9503
:102A1000EAF78F2F0E945B1714C00E94B70D2DC0DC
:102A20000E5F1F4FFE01849190E2980F983060F482
:102A30008770FE2D01C0FF0F8A95EAF78F2F0E9445
:102A400061170E94861719C00E94610E16C00E5FA2
:102A50001F4FFE01C491CC2381F08FE99FE00197C5
:102A6000F1F700C00000C150F6CF0E5F1F4FFE010E
:102A7000F49003C00E94B70D8E018F2D882309F4B6
:102A80009FCFEFE9FFE03197F1F700C000008150E0
:102A9000F5CFDF91CF911F910F91FF90EF900895A7
:102AA000089508950C9451150C9452150E945415D4
:102AB0006093130270931402809315029093160290
:102AC0000C9452110C9456150F931F9300911302FE
:102AD000109114022091150230911602602B712B77
:102AE000822B932B1F910F910C9456150F931F93CC
:102AF00000911302109114022091150230911602D8
:102B000060237123822393231F910F910C945615F8
:102B10000F931F930091130210911402209115023C
:102B20003091160260277127822793271F910F91FA
:102B30000C9456150C9451150E949A1560930F022F
:102B40007093100280931102909312020C94521110
:102B500060E070E0CB010C949C150F931F9341E053
:102B600050E060E070E08A019B0104C0000F111F7B
:102B7000221F331F8A95D2F7C901B8011F910F9107
:102B80000C949C150F931F9341E050E060E070E0BF
:102B900004C0440F551F661F771F8A95D2F7809196
:102BA0000F0290911002A0911102B09112028A01BD
:102BB0009B01082B192B2A2B3B2BC901B8011F9114
:102BC0000F910C949C150F931F9341E050E060E02F
:102BD00070E004C0440F551F661F771F8A95D2F717
:102BE000409550956095709580910F0290911002DC
:102BF000A0911102B09112028A019B0108231923AE
:102C00002A233B23C901B8011F910F910C949C15F5
:102C10000F931F9341E050E060E070E004C0440F68
:102C2000551F661F771F8A95D2F780910F029091EA
:102C30001002A0911102B09112028A019B01082793
:102C400019272A273B27C901B8011F910F910C941E
:102C50009C150F931F9300910F0210911002209169
:102C6000110230911202602B712B822B932B1F913A
:102C70000F910C949C150F931F9300910F021091CC
:102C800010022091110230911202602371238223DD
:102C900093231F910F910C949C150F931F930091F8
:102CA0000F02109110022091110230911202602740
:102CB0007127822793271F910F910C949C150895DB
:102CC0002FE0929F800D1124E82FE695E695E6957A
:102CD000877051E001C0550F8A95EAF785E0E89FBB
:102CE000F0011124E352FE4F20E030E070E040811B
:102CF000CB01022E02C0969587950A94E2F7817067
:102D0000819584278523842781932F5F3F4F25302A
:102D1000310569F708952FE0929F800D1124682FE7
:102D2000669566956695982F977085E0689FB001C7
:102D3000112440E050E080E0FB01E40FF51FE35276
:102D4000FE4F208130E0092E02C0369527950A9467
:102D5000E2F721703327042E01C0220F0A94EAF70C
:102D6000822B4F5F5F4F4530510531F70895BF9279
:102D7000CF92DF92EF92FF920F931F93CF93DF9347
:102D80008C01C0900F02D0901002E0901102F090E0
:102D900012028091130290911402A0911502B09139
:102DA0001602C82AD92AEA2AFB2ACFE1D0E0D701A5
:102DB000C6010C2E04C0B695A795979587950A94E1
:102DC000D2F780FD04C0219790F7B12C07C0BC2E2C
:102DD000B8018C2F0E9412070197A9F38B2DDF9168
:102DE000CF911F910F91FF90EF90DF90CF90BF9008
:102DF0000895CF93DF93EC010E94B716BE010E94A5
:102E00001207DF91CF9108951F93CF93DF93EB01CA
:102E10009091A401992321F0CB010E94F91613C0CF
:102E2000882349F0CB010E94B716182F682FCE01D6
:102E30000E94601604C0CB010E948B16182FBE01A1
:102E4000812F0E941207DF91CF911F9108958091E9
:102E5000170285958595859508958091170287704D
:102E6000089590911702977081E009F480E0089529
:102E700080913B02089590913B02892B80933B0205
:102E80000895809590913B02892380933B02089599
:102E900010923B02089590913A02892B80933A0256
:102EA0000895809590913A02892380933A0208957B
:102EB00010923A02089590913902892B8093390239
:102EC000089580959091390289238093390208955D
:102ED00010923902089580911802089508950C9473
:102EE0006E170C946F1790911802981721F0809329
:102EF00018020C947117089580911802882329F004
:102F00001092180280E00C9471170895E09100016E
:102F1000F091010180913B028083E0910001F091EA
:102F20000101908180913A02892B8083E091000118
:102F3000F0910101908180913902892B80838091E9
:102F40001802882381F0E0910001F0910101908145
:102F5000892B808380910001909101010E94A1182A
:102F600081110E947C1780910001909101010C94C5
:102F7000550C0C946E1798E0899F90011124262B14
:102F8000209317020E94C21580911702859585959E
:102F900085950C94B9171092170280E00C94B9171C
:102FA000209117028095822380931702982F9770A3
:102FB00079F430E0482F082E000C550B2417350704
:102FC00039F08595859585950E94E3150C94CB176E
:102FD000089580E090E00E948E2521E08C3E9E4F77
:102FE00009F020E0822F089582E090E00C9486257D
:102FF000682F82E090E00C94942583E090E00C949C
:103000008625682F83E090E00C949425CF9384E08C
:1030100090E00E948625C82F81E290E00E948625DC
:103020002C2F30E0A901582BCA01CF910895CF93DE
:10303000C92F682F84E090E00E9494256C2F81E2D4
:1030400090E0CF910C949425AB01BC018FE090E00F
:103050000C94A625AB01BC0183E190E00C94A6255D
:1030600060E070E0CB010C942A1860E070E0CB01C6
:103070000E9424180C9430186CEE7EEF80E090E0F3
:103080000E94B22560E082E090E00E94942560E01A
:1030900083E090E00E949425109213021092140293
:1030A000109215021092160260E084E090E00E94F7
:1030B000942560E081E290E00E94942560E085E044
:1030C00090E00E94942560E086E090E00E949425C4
:1030D0006FEF87E090E00E94942540E050E0BA0155
:1030E00088E090E00E94A62560E08DE090E00E94DC
:1030F000942540E050E0BA0188E190E00E94A625C6
:1031000060E087E190E00E94942540E050E0BA0141
:103110008CE190E00E94A62560E080E290E00E94B1
:10312000942540E050E0BA0188E190E00E94A62595
:103130000C9435180C943C18682F8EE090E00C9499
:103140009425FC01329680911401882331F08091FE
:10315000850287FF02C09EE101C096E080E09150A9
:1031600028F021912223D9F38F5FF9CF08956623A8
:1031700051F1209114012223E9F02091850227FFCB
:1031800019C0462F4695469546954E31E0F4677036
:1031900021E030E002C0220F331F6A95E2F7FC0104
:1031A000E40FF11D828190E02823392381E0232B55
:1031B00069F409C0FC01329608962191621729F042
:1031C000E817F907D1F780E0089581E008959C01A0
:1031D000FC0132969FEF80E04191461789F09F3FB6
:1031E00019F4411101C0982F8F5F8630A9F79F3FD6
:1031F00039F0F901E90FF11D97FDFA956283089501
:1032000008959C012A5F3F4FFC014281461301C093
:103210001282019682179307B9F70895262F2695F3
:10322000269526952E3168F4FC01E20FF11D67709A
:1032300021E030E001C0220F6A95EAF78281282B55
:1032400022830895262F2695269526952E3170F4F3
:10325000FC01E20FF11D677021E030E001C0220F98
:103260006A95EAF720958281282322830895209188
:103270001401222329F02091850227FD0C940E19B8
:103280000C94E71820911401222329F02091850243
:1032900027FD0C9422190C94011920911401FC01B2
:1032A0003296222331F08091850287FF02C08EE1A1
:1032B00001C086E0DF011D928A95E9F7089508951F
:1032C0000C945F190C945F19CF930E9462190E94AD
:1032D0005C090E946019C0E08C2F0E940109892BB3
:1032E00029F4CF5FC530C1F780E001C081E0CF9104
:1032F00008950C945F190C9479190E947B198091A0
:103300008B02843049F110923D0220E488E190E084
:103310000FB6F894A895809360000FBE20936000CC
:1033200080E00E94EA060E947B1983B7817F846057
:1033300083BF83B7816083BF7894889583B78E7F7E
:1033400083BF0FB6F894A895809160008861809340
:103350006000109260000FBE08950C945F190E94E7
:103360006C110E94490C0E94EA060C94AD191F9240
:103370000F920FB60F9211248F939F93AF93BF9329
:1033800080913D02811113C080918102909182024F
:10339000A0918302B09184024196A11DB11D80933A
:1033A000810290938202A0938302B0938402BF9122
:1033B000AF919F918F910F900FBE0F901F90189516
:1033C00082E084BD93E095BD9AEF97BD80936E0037
:1033D00008952FB7F8948091810290918202A09174
:1033E0008302B09184022FBF08959C014FB7F894D7
:1033F0008091810290918202A0918302B091840217
:103400004FBF821B930B089578941F920F920FB6B3
:103410000F9211248F939F93AF93BF93809181025A
:1034200090918202A0918302B09184020196A11D25
:10343000B11D8093810290938202A0938302B09386
:103440008402BF91AF919F918F910F900FBE0F900B
:103450001F90189581E08093E00080E28093D8006F
:103460001092C9008FE19EE40197F1F700C00000BF
:1034700087E090EBDC018093940290939502A093F7
:103480009602B09397029CE088E10FB6F894A89555
:10349000809360000FBE90936000FFCFAF92BF9209
:1034A000CF92DF92EF92FF920F931F93CF93C0E0E2
:1034B000CC24C394D12CE82EF12C8C2F0E9401092E
:1034C0005C0100E010E0C601002E02C0880F991FC9
:1034D0000A94E2F78A219B21892B31F40F5F1F4F59
:1034E0000F30110581F70AC0602F7C2F80E00E9409
:1034F000F706E816F90691F781E004C0CF5FC53002
:10350000E1F680E0CF911F910F91FF90EF90DF9057
:10351000CF90BF90AF900895CF93C82F8CE20E94B8
:103520004E1A882321F08C2FCF910C944E1A80E0F4
:10353000CF910895CF930E94E917811102C00E9494
:103540009A18C5E6C15049F00E945C098FE39CE9D6
:103550000197F1F700C00000F5CF89E20E948C1AB4
:1035600081112AC18AE20E948C1A81110E949A1844
:1035700085E00E948C1A81110E942A1A0E94F41779
:1035800080933C0287E00E948C1A8823A9F18BE18A
:103590000E948C1A882351F080913C0281FB2227E3
:1035A00020F991E0922790FB81F90EC08EE00E94F5
:1035B0008C1A882361F080913C0282FB222720F93B
:1035C00091E0922790FB82F980933C0215C080E144
:1035D0000E948C1A90913C02882341F093FB222791
:1035E00020F981E0822780FB93F904C0892F809520
:1035F00080FB90F990933C0280913C020E94F81766
:103600000E940618909386028093850280EE0E94A5
:103610008C1A882341F080918502982F909590FB19
:1036200080F98093850289E30E948C1A882359F0DF
:103630008091850281FB222720F991E0922790FB5F
:1036400081F98093850282EE0E948C1A882359F0BA
:103650008091850282FB222720F991E0922790FB3E
:1036600082F98093850286EE0E948C1A882359F095
:103670008091850283FB222720F991E0922790FB1D
:1036800083F98093850283EE0E948C1A882359F077
:103690008091850284FB222720F991E0922790FBFC
:1036A00084F98093850285E30E948C1A882359F05F
:1036B0008091850285FB222720F991E0922790FBDB
:1036C00085F98093850281E30E948C1A882359F042
:1036D0008091850286FB222720F991E0922790FBBA
:1036E00086F98093850281E10E948C1A882359F023
:1036F0008091850287FB222720F991E0922790FB99
:1037000087F98093850280918502909186020E94BC
:10371000171887E20E948C1AC82F8EE10E948C1A1B
:103720008111C2608FE10E948C1A8111C46080E215
:103730000E948C1A8111C86081E20E948C1A81114A
:10374000C06182E20E948C1A8111C06283E20E94F1
:103750008C1A8111C06484E20E948C1A882311F0B3
:10376000C06802C0CC2329F08C2F0E9401186C2F56
:1037700003C00E94FD17682F70E080E090E00E9477
:10378000621560910F027091100280911102909168
:1037900012020E949A158FE00E948C1A882319F059
:1037A00081E00E949C1885E10E948C1A882321F0F8
:1037B00080E0CF910C949C18CF91089580914402A1
:1037C00080FF0BC06091070185E0689FB001112464
:1037D00075956795759567952BC081FF09C06091B8
:1037E000070185E0689FB00111247595679520C099
:1037F00082FF07C06091070185E0689FB001112436
:1038000017C0909143029923D1F060910601961759
:1038100088F72091070185E0289F90011124929F4D
:10382000A001939F500D112470E0CA010E945825F9
:103830006038710540F46115710519F406C065E042
:1038400070E0862F08958FE7089581E008958091B4
:10385000440280FF08C06091030170E07595679590
:103860007595679521C081FF06C06091030170E0E6
:103870007595679519C082FF04C06091030170E0DF
:1038800010C090914202992399F06091020196171D
:10389000A0F780910301899FC001112470E00E946C
:1038A00058256038710540F46115710519F406C09A
:1038B00061E070E0862F08958FE7089581E0089514
:1038C000803F21F40E94DE1B819504C0813F29F4D2
:1038D0000E94DE1B809348020895823F21F40E94DB
:1038E000DE1B819504C0833F29F40E94DE1B809378
:1038F00047020895893F19F40E94271C05C08A3F9A
:1039000031F40E94271C81958093490208958B3FD2
:1039100021F40E94271C819504C08C3F29F40E9449
:10392000271C80934A020895843F21F48091460227
:10393000816017C0853F21F480914602826011C0EA
:10394000863F21F48091460284600BC0873F21F4BA
:1039500080914602886005C0883F31F4809146021C
:1039600080618093460208958D3F21F48091440246
:1039700081600BC08E3F21F480914402826005C0BB
:103980008F3F29F48091440284608093440208951B
:10399000803F39F48091480287FF6AC01092480244
:1039A00067C0813F29F4809148021816BCF360C0BB
:1039B00090914702823F29F497FF5AC01092470224
:1039C00057C0833F19F41916CCF352C090914902A5
:1039D000893F31F419160CF04BC01092490248C0CF
:1039E0008A3F19F497FF44C0F8CF8B3F39F4809198
:1039F0004A0287FF3DC010924A023AC08C3F29F428
:103A000080914A021816BCF333C0843F21F48091A0
:103A100046028E7F17C0853F21F4809146028D7F3C
:103A200011C0863F21F4809146028B7F0BC0873FF7
:103A300021F480914602877F05C0883F31F4809150
:103A400046028F7E8093460213C08D3F21F4809101
:103A500044028E7F0BC08E3F21F4809144028D7F03
:103A600005C08F3F29F4809144028B7F80934402EC
:103A700080914702811106C080914802811102C0E5
:103A80001092430280914902811106C080914A023E
:103A9000811102C01092420208950E94E9192091FA
:103AA0004702211104C020914802222321F0909363
:103AB00041028093400220914902211104C02091CB
:103AC0004A02222321F090933F0280933E0285E434
:103AD00092E00C946F0CEF92FF920F931F93CF9391
:103AE000DF9300D000D000D0CDB7DEB786E0E5E4AC
:103AF000F2E0DE01119601900D928A95E1F7E090D7
:103B00004702F09048020091490210914A02109237
:103B10004702109248021092490210924A02E110A4
:103B200003C0FF2009F45DC08091400290914102E2
:103B30000E94F519AC0190914302992339F020912C
:103B4000080130E02417350758F04BC020910901D7
:103B50008AE0289F900111242417350718F041C0EE
:103B60009F3F19F09F5F90934302EE2061F00E9407
:103B7000DE1B1E1414F09FEF01C091E0989F902D62
:103B8000112490934702FF2061F00E94DE1B1F1456
:103B900014F09FEF01C091E0989F902D1124909315
:103BA0004802309147023323E1F02091480222235A
:103BB000C1F045EB3403C0011124992319F090930F
:103BC000470203C081E08093470235EB2303C00125
:103BD0001124992319F09093480203C081E0809347
:103BE0004802011103C0112309F45DC080913E0217
:103BF00090913F020E94F519AC01909142029923E5
:103C000039F02091040130E02417350758F04BC0FB
:103C1000209105018AE0289F90011124241735077F
:103C200018F041C09F3F19F09F5F9093420200231C
:103C300061F00E94271C101614F09FEF01C091E064
:103C4000989F902D112490934902112361F00E94B6
:103C5000271C111614F09FEF01C091E0989F902D42
:103C6000112490934A02309149023323E1F02091CC
:103C70004A022223C1F045EB3403C00111249923E9
:103C800019F09093490203C081E08093490235EB1B
:103C90002303C0011124992319F090934A0203C011
:103CA00081E080934A028091470281110BC080918C
:103CB0004802811107C080914902811103C080919F
:103CC0004A0281110E944D1DEB82FC820D831E83EE
:103CD00086E0FE013196A5E4B2E001900D928A954E
:103CE000E1F726960FB6F894DEBF0FBECDBFDF9189
:103CF000CF911F910F91FF90EF900895E5E4F2E0CE
:103D000086E0DF011D928A95E9F710924302109236
:103D1000420210924402089580916B020895CF935D
:103D2000DF9300D01F92CDB7DEB790918B02943015
:103D300019F589837B836A8382E08093E9008FEFA2
:103D40009091E800815095FD06C095ED9A95F1F7A8
:103D500000008111F5CF8091E80085FF0DC040E0A3
:103D600050E063E070E0CE0101960E94BA2080919D
:103D7000E8008E778093E8000F900F900F90DF910E
:103D8000CF910895BC0184E00C948F1EBC0183E0A8
:103D90000C948F1E22E02093E9002FEF3091E80071
:103DA000215035FD06C035ED3A95F1F7000021119F
:103DB000F5CF2091E80025FF0BC040E050E066E021
:103DC00070E00E94BA208091E8008E778093E8002E
:103DD0000895CF93DF9320911401222339F020918D
:103DE000850227FF03C060E222E002C068E021E014
:103DF0002093E9002FEF3091E800215035FD06C0F7
:103E000035ED3A95F1F700002111F5CF2091E8004A
:103E100025FF1DC0EC0180911401811105C040E017
:103E200050E068E070E003C070E040E050E0CE0198
:103E30000E94BA208091E8008E778093E80080E2AB
:103E4000FE01ABE4B2E001900D928A95E1F7DF91BB
:103E5000CF91089580918A02811109C00E944B225E
:103E60000E94A8228091E20084608093E20008957D
:103E700010928A020895089508950C94AF1942E0B3
:103E800061EC81E00E94C42142E261EC82E00C948A
:103E9000C42180918D02833009F460C030F48130F8
:103EA00071F0823009F499C008958A3009F485C010
:103EB0008B3009F46BC0893009F0A7C020C0809115
:103EC0008C02813A09F0A1C08091E800877F80933D
:103ED000E8008091900290919102892B21F460E298
:103EE0008BE492E003C060E080E090E070E00E942C
:103EF00005218091E8008B778093E80008958091F8
:103F00008C02813209F081C08091900290919102DF
:103F1000029708F07AC08091E800877F8093E800DC
:103F20008091E80082FD05C080918B028111F8CF5D
:103F30006CC02091F3008091F20090E0922B0297E8
:103F400029F48091F1008B7F813021F48091F10080
:103F500080936B028091E8008B7753C080918C0234
:103F6000813A09F052C08091900290919102892B80
:103F700009F04BC08091E800877F8093E800809132
:103F8000E80080FFFCCF8091140136C080918C0244
:103F90008132D9F58091900290919102892BA9F5F7
:103FA0008091E800877F8093E8000E94F92180914A
:103FB0008E02809314010C946C1180918C028132DA
:103FC00021F58091E800877F8093E8000E94F92125
:103FD00080918F0280936C02089580918C02813AC7
:103FE000A1F48091E800877F8093E8008091E80049
:103FF00080FFFCCF80916C028093F1008091E800FB
:104000008E778093E8000C94F921089584B7877F18
:1040100084BF0FB6F894A895809160008861809362
:104020006000109260000FBE90E080E80FB6F89438
:1040300080936100909361000FBE0E94C10C0E94AA
:104040004B220E94A8228091E20084608093E200CB
:1040500078940E943D250E94C70C8AE091E00E945E
:10406000440C80918B02853069F40E947D19809107
:1040700089028823B1F30E946419882391F30E9476
:10408000A420EFCF0E94CF0C0E94B50C0E94B40C6C
:10409000E8CF0C944B20292F332723303105C9F06A
:1040A00060F42130310581F02230310509F044C03F
:1040B0008BE390E02CE83AE043C021323105E1F097
:1040C0002232310549F138C082E190E027EC3AE034
:1040D00037C099278130910549F028F0029761F5A2
:1040E000ECE5FAE005C0E8E8FAE002C0E0E7FAE053
:1040F000849190E09F0124C06115710541F0613009
:104100007105D1F489E090E027EB3AE019C089E02D
:1041100090E02EE93AE014C06115710541F061307C
:10412000710551F48CEB90E029ED3AE009C080E490
:1041300090E025E93BE004C080E090E020E030E042
:10414000FA0131832083089580E189BD82E189BD30
:1041500009B400FEFDCF8091D8008F7D8093D800F8
:104160008091E00082608093E0008091E00081FD1A
:10417000FCCF0895CF92DF92EF92FF920F931F939F
:10418000CF93DF93EC018B017A010E9418228111F9
:1041900033C0E114F10439F0F70180819181081BEB
:1041A000190BC80FD91FC12CD12C0115110519F1FC
:1041B0008091E80085FD16C08091E8008E7780939D
:1041C000E800E114F10449F0F70180819181C80E03
:1041D000D91ED182C08285E00FC00E941822882398
:1041E00021F30AC089918093F10001501109FFEF7A
:1041F000CF1ADF0ADACF80E0DF91CF911F910F91C4
:10420000FF90EF90DF90CF9008952091920230912F
:1042100093022617370748F06115710539F420918C
:10422000E8002E772093E80001C0B901FC0120E0EE
:104230006115710579F180918B028823F1F1853048
:10424000F1F18091E80083FD3CC08091E80082FD9F
:104250002EC08091E80080FFEBCF2091F300809189
:10426000F20090E0922B6115710551F088309105B4
:1042700038F421912093F100615071090196F3CF38
:1042800021E0089709F020E08091E8008E77809384
:10429000E800CECF2111CFCF0AC080918B028823B6
:1042A00061F0853061F08091E80083FD0AC0809163
:1042B000E80082FFF2CF80E0089582E0089583E075
:1042C000089581E00895209192023091930226177B
:1042D000370748F06115710539F42091E8002E7711
:1042E0002093E80001C0B901FC0120E061157105CF
:1042F00091F180918B02882309F440C0853009F444
:104300003FC08091E80083FD3DC08091E80082FDC0
:104310002FC08091E80080FFE9CF2091F3008091C9
:10432000F20090E0922B6115710559F088309105EB
:1043300040F424912093F100319661507109019667
:10434000F2CF21E0089709F020E08091E8008E7715
:104350008093E800CBCF2111CCCF0AC080918B0293
:10436000882361F0853061F08091E80083FD0AC008
:104370008091E80082FFF2CF80E0089582E0089506
:1043800083E0089581E00895982F973068F5909321
:10439000E900981739F07091EC002091ED005091F0
:1043A000F00003C0242F762F50E021FD02C09F5F54
:1043B000ECCF3091EB003E7F3093EB003091ED007D
:1043C0003D7F3093ED003091EB0031603093EB0096
:1043D0007093EC002093ED005093F0002091EE00DC
:1043E00027FDE5CF80E008958F708093E90081E09C
:1043F000089580918C0287FF11C08091E80082FDB2
:1044000005C080918B028111F8CF11C08091E80026
:104410008B770BC080918B02882349F08091E80054
:1044200080FFF8CF8091E8008E778093E8000895B0
:104430002091E4003091E50095E64091EC00842F56
:10444000817040FF23C08091E80080FD1DC08091F5
:104450008B02882399F0853099F08091EB0085FDDF
:1044600011C04091E4005091E5002417350729F36D
:10447000915011F09A01E1CF84E0089582E008950F
:1044800083E0089581E0089580E008954091E80078
:1044900042FFDDCF08950E94B9220E94C122E0EEC2
:1044A000F0E0808181608083E8EDF0E080818F77AB
:1044B000808319BCA7EDB0E08C918E7F8C938081B6
:1044C0008F7E808310928A0208950F931F93CF935B
:1044D000DF930E94B9220E94C122C8EDD0E08881FA
:1044E0008F77888388818068888388818F7D88839F
:1044F00019BC10928B0210928702109289021092BE
:10450000880200EE10E0F80180818B7F8083888133
:104510008160888342E060E080E00E94C421E1EE97
:10452000F0E080818E7F8083E2EEF0E08081816028
:104530008083808188608083F80180818E7F808382
:10454000888180618883DF91CF911F910F910895B9
:10455000E8EDF0E080818F7E8083E7EDF0E0808100
:104560008160808384E082BF81E080938A020C9422
:104570006522E8EDF0E080818E7F80831092E2007A
:1045800008951092DA001092E10008951F920F92A0
:104590000FB60F9211242F933F934F935F936F9316
:1045A0007F938F939F93AF93BF93EF93FF938091EC
:1045B000E10082FF0BC08091E20082FF07C0809182
:1045C000E1008B7F8093E1000E943C258091DA001E
:1045D00080FF1FC08091D80080FF1BC08091DA004F
:1045E0008E7F8093DA008091D90080FF0DC080E13A
:1045F00089BD82E189BD09B400FEFDCF81E08093D1
:104600008B020E942A1F05C019BC10928B020E94C7
:10461000381F8091E10080FF19C08091E20080FF87
:1046200015C08091E2008E7F8093E2008091E200CD
:1046300080618093E2008091D80080628093D800EE
:1046400019BC85E080938B020E943C1F8091E100A1
:1046500084FF30C08091E20084FF2CC080E189BDDE
:1046600082E189BD09B400FEFDCF8091D8008F7D25
:104670008093D8008091E1008F7E8093E10080914B
:10468000E2008F7E8093E2008091E200816080935F
:10469000E20080918702882311F084E007C08091B6
:1046A000E30087FD02C081E001C083E080938B02BC
:1046B0000E943D1F8091E10083FF29C08091E200AC
:1046C00083FF25C08091E100877F8093E10082E035
:1046D00080938B02109287028091E1008E7F8093FD
:1046E000E1008091E2008E7F8093E2008091E20001
:1046F00080618093E20042E060E080E00E94C4219B
:104700008091F00088608093F0000E943B1FFF9131
:10471000EF91BF91AF919F918F917F916F915F9139
:104720004F913F912F910F900FBE0F901F901895B2
:104730001F920F920FB60F9211242F933F934F9316
:104740005F936F937F938F939F93AF93BF93CF9319
:10475000DF93EF93FF93C091E900CF708091EC005D
:10476000D82FD17080FDD0E81092E9008091F00040
:10477000877F8093F00078940E94DC231092E900F8
:104780008091F00088608093F000CD2BCF70C093B3
:10479000E900FF91EF91DF91CF91BF91AF919F9190
:1047A0008F917F916F915F914F913F912F910F90DA
:1047B0000FBE0F901F9018951F93CF93DF93CDB727
:1047C000DEB7AA970FB6F894DEBF0FBECDBFECE8F8
:1047D000F2E08091F100819322E0E439F207C9F719
:1047E0000E94491F8091E80083FF2EC180918C02B6
:1047F00090918D02492F50E04A30510508F024C1B4
:10480000FA01EC58FF4F0C946C25803821F0823867
:1048100009F01AC108C080918802909189029923F9
:1048200089F082600FC0809190028F70873008F00D
:104830000BC18093E9008091EB0085FB882780F90C
:104840001092E9009091E800977F9093E8008093A0
:10485000F1001092F100D1C0282F2D7F09F0F4C093
:10486000882319F0823061F0EFC080918E02813090
:1048700009F0EAC0933009F080E0809389022EC0ED
:1048800080918E0281112AC0809190028F702FEF4B
:10489000280F263008F0D8C08093E9002091EB0063
:1048A00020FF1CC0933021F48091EB00806214C083
:1048B0009091EB0090619093EB0021E030E0A90132
:1048C00002C0440F551F8A95E2F74093EA00109208
:1048D000EA008091EB0088608093EB001092E90081
:1048E0008091E800877F8093E8000E94F921ACC0A6
:1048F0008111AAC010918E021F778091E300807809
:10490000812B8093E3008091E800877F8093E8000B
:104910000E94F9218091E80080FFFCCF8091E300A4
:1049200080688093E300111102C082E001C083E03F
:1049300080938B0289C08058823008F085C08091B6
:104940008E0290918F028C3D53E0950779F583E0BC
:104950008A838AE289834FB7F894DE01139620E0B8
:104960003EE051E2E32FF0E050935700E49120FF46
:1049700003C0E295EF703F5FEF708E2F90E0EA305A
:1049800010F0C79601C0C0968D939D932F5F243180
:1049900049F74FBF8091E800877F8093E8006AE283
:1049A00070E0CE0101960E94052116C06091900230
:1049B00070919102AE014F5F5F4F0E944920BC0190
:1049C000892B09F441C09091E800977F9093E8000B
:1049D00089819A810E9463218091E8008B7780937E
:1049E000E80032C0803881F58091E800877F8093AD
:1049F000E800809187028093F1008091E8008E7733
:104A000072CF811121C080918E0290918F029927DF
:104A10000297D4F48091E800877F8093E80080912A
:104A20008E02809387020E94F92180918702811172
:104A300006C08091E30087FD02C081E001C084E0F0
:104A400080938B020E943F1F8091E80083FF0AC081
:104A50008091E800877F8093E8008091EB0080627E
:104A60008093EB00AA960FB6F894DEBF0FBECDBFC1
:104A7000DF91CF911F9108950895CF9380918B027C
:104A80008823A1F0C091E900CF709091EC00892FAC
:104A9000817090FD80E8C82B1092E9008091E800B9
:104AA00083FD0E94DC23CF70C093E900CF9108956D
:104AB00097FB072E16F4009407D077FD09D00E94CB
:104AC000722507FC05D03EF4909581959F4F08957F
:104AD000709561957F4F0895EE0FFF1F0590F4913B
:104AE000E02D0994AA1BBB1B51E107C0AA1FBB1FE5
:104AF000A617B70710F0A61BB70B881F991F5A956A
:104B0000A9F780959095BC01CD010895F999FECF44
:104B100092BD81BDF89A992780B50895A8E1B0E0CB
:104B200042E050E00C94BA25262FF999FECF92BDB1
:104B300081BDF89A019700B4021639F01FBA20BD62
:104B40000FB6F894FA9AF99A0FBE08950396272F94
:104B50000E9495250E949425252F0E949525242F9B
:104B60000C9495250196272F0E9495250C94942549
:104B7000DC01CB01FC01F999FECF06C0F2BDE1BD1D
:104B8000F89A319600B40D9241505040B8F708950C
:044B9000F894FFCFC7
:104B940019022808641E140A321E8C1EE91ECA1E3D
:104BA400C61EC21E01E200E900EA00B500B600B765
:104BB40000CD008301CC008A0192019401210223DB
:104BC4000224022502260227022A02B300B4006F3F
:104BD400007000818283676636353497F63093928D
:104BE4009190333231F0F1F5F796E200E900EA00F2
:104BF400B500B600B700CD008301CC008A01920154
:104C040094012102230224022502260227022A02F9
:0C4C1400B300B4006F00700081828300C8
:00000001FF
